:020000040800F2
:1000000018050020010100086B1D00085B1B00089B
:10001000691D00085D0A0008A12300080000000017
:10002000000000000000000000000000FB1F0008AE
:100030005F0A0008000000008D1D0008FD1F000879
:100040001B0100081B0100081B0100081B01000820
:100050001B0100081B0100081B0100081B01000810
:100060001B0100081B0100081B0100081B01000800
:100070001B0100081B0100081B0100081B010008F0
:100080001B0100081B0100081B0100081B010008E0
:100090001B0100081B0100081B0100081B010008D0
:1000A0001B010008D52000081B0100081B010008E7
:1000B0001B0100081B0100081B0100081B010008B0
:1000C0001B0100081B0100081B0100081B010008A0
:1000D0001B0100081B0100081B0100081B01000890
:1000E0001B0100081B0100081B010008DFF80CD0F1
:1000F00000F024FC00480047792F00081805002074
:100100000648804706480047FEE7FEE7FEE7FEE7B1
:10011000FEE7FEE7FEE7FEE7FEE7FEE78D200008CC
:10012000ED000008202A04DB203A21FA02F0002129
:10013000704721FA02F3D040C2F1200291400843F7
:100140001946704738B5D0E90221491E01EB41013B
:1001500002EBC1014268C1EB011102EB81010268AF
:10016000C1EB011102EB8102D0E9043101EB410145
:1001700003EB81013023A1F5527191FBF3F4174D8C
:100180006C4302EBC41291FBF3F403FB14110092D5
:100190001A2902DB124B1A4400920C2291FBF2F353
:1001A000104C6343009C04EBC313009391FBF2F3E8
:1001B00002FB13110C4A08E0491E40F2A324535CD1
:1001C0006343009C04EBC31300930029F4DC014655
:1001D000684600F0D9F8009838BD00003F0C0F00C9
:1001E0008051010067C203006838000840EA01033B
:1001F0009B0703D009E008C9121F08C0042AFAD2DD
:1002000003E011F8013B00F8013B521EF9D27047A0
:10021000F0B480EA0102D40F4200B2EB410F02D2E7
:100220000246084611464A0042D0C30DDDB2C1F372
:10023000C752AD1A202D35DAC1F3160141F4000280
:1002400004B15242C5F1200602FA06F12A411044D7
:10025000B3EBD05F23D0C4B1012DA0EBC35009DCB8
:10026000F0BC4FF0004202EAC352DBB200F50000DE
:1002700000F0D9B8400000F1807000EBC350A0F14D
:10028000807040EAD170490009E0490841EAC07134
:10029000A0EBC35000F50000400800EBC350F0BCD9
:1002A00000F0B8B86142012202EB4101001BF6E701
:1002B000F0BC704781F00041AAE780F00040A7E75A
:1002C000C10F80EAE0700844CA079623002100F0BD
:1002D000AAB800F0004230F000400AD0C10D01F58C
:1002E0006071C0F3160042EA0151C2084007114391
:1002F000704700200146704730B50B46014600208C
:100300002022012409E021FA02F59D4205D303FAD7
:1003100002F5491B04FA02F52844151EA2F1010258
:10032000F1DC30BD2DE9F05F0546002092469B468A
:1003300088460646814640241BE0284641464746FB
:100340002246FFF7EFFE53465A46C01A914110D39A
:1003500011461846224600F003FB2D1A67EB0108F0
:100360004F4622460120002100F0FAFA17EB00095F
:100370004E41201EA4F10104DFDC484631462A46E6
:100380004346BDE8F09F000010B500683C22B0FB7A
:10039000F2F302FB1303B0FBF2F00B60B0FBF2F3DD
:1003A00002FB1303B0FBF2F018224B60B0FBF2F338
:1003B00002FB1303B0FBF2F0021D8B600723B2FBBC
:1003C000F3F403FB1422800040F2B55300F66C30C6
:1003D0008A61B0FBF3F2B0FBF3F403FB1400443288
:1003E00080084A61C8613B2802D3920700D0401CB4
:1003F0000022074C13460A61E25C824203D8801A4D
:100400005B1C0B61F8E7401CC860084610BD00008B
:10041000743800080029A8BF7047401C490008BF75
:1004200020F00100704710B4B0FA80FC00FA0CF024
:1004300050EA010404BF10BC704749B1CCF120045C
:1004400021FA04F411FA0CF118BF012121430843E9
:10045000A3EB0C01CB1D4FEA00614FEA102042BF15
:10046000002010BC704700EBC35010440029A4BF0B
:1004700010BC7047401C490008BF20F0010010BCB0
:10048000704780EA010210B502F00043400022D01C
:100490004A001FD0010E01EB1261C0F35600C2F3F7
:1004A000560240F4000042F40002A0FB02200004C7
:1004B0007F39140400D0401C50EA124001D440009F
:1004C000491EC2B20C0604EBD010401C4008802A22
:1004D00002D003E0002010BD20F00100002900DA66
:1004E0000020184310BD30B480EA010202F000453C
:1004F00030F0004221F0004013D090B1C30DD40D74
:10050000C2F31601C0F31600E41A41F4000140F4EE
:1005100000027D34914201D3641C00E04900002CAC
:1005200002DA30BC002070474FF4000000239142F3
:1005300001D3891A034340084FEA4101F7D151B171
:10054000914202D14FF0004105E002D24FF001018B
:1005500001E06FF0010103EBC450284430BCFFF709
:1005600059BF420005D0C0F3C7525242914201DC4C
:100570000020704700EBC15070472DE9FE4F8046C8
:1005800081EA0300C00F0C46009021F0004123F0E7
:100590000045B8EB0200A94105D2404621469046ED
:1005A0001C460B46024623F00040104347D0270D5F
:1005B000C7F30A00C3F30A510290401A0190402881
:1005C0006BDAC3F3130040F4801B0098924620B10D
:1005D0000023D2EB030A63EB0B0B01985946C0F1E1
:1005E0004002504600F0BCF906460D4650465946BA
:1005F000019A00F0C4F910EB08006141002487EA79
:10060000115284EAE7731A4340D0009A62B3019A08
:10061000012A4FEA075215DC001B61EB02014FF083
:10062000004202EA0752CDE90042001C41F5801168
:1006300032462B4600F0C4F903B0BDE8F08F4046C7
:100640002146F9E7001B61EB0201001C41F5801314
:1006500000185B412018A2F5001747EB030140EAA0
:10066000D570B6196D4111E06D084FEA360645EABE
:10067000C0754FEA0752001B61EB0201001C41F5F7
:10068000801149084FEA30000019514132462B468B
:1006900003B0BDE8F04F00F084B90098012240009B
:1006A0000023D0EB020263EBE073009821464FEA8F
:1006B000E074B8EB000061EB0401E9E783F000436C
:1006C0005BE781F0004158E72DE9FE4F81EA030422
:1006D00004F0004421F0004100944FF0000B23F09F
:1006E000004350EA01045ED052EA03045BD0C3F336
:1006F0000A54C1F30A552C44A4F2F3340194A0FB2C
:100700000254C1F3130141F48011C3F3130343F402
:10071000801301FB024400FB034E840A970A44EA5B
:10072000815447EA8357A4FB076802958D0A05FBAD
:1007300007854FEA932C04FB0C542705029D4FEAD2
:10074000065847EA1637B5EB08056EEB070C870E1F
:10075000920E47EA811742EA8312A7FB0201B6EB29
:100760000B0164EB00042B0D43EA0C335E1844EBE1
:100770001C50DA465146E7FB0201C5F313044FEA69
:100780000B3343EA14534FEA0432019C43EA060355
:10079000A4F10C040294009CCDE900B400F010F91F
:1007A00003B0BDE8F08F00200146F9E72DE9F04DD8
:1007B00081EA030404F0004B21F0004514464FF099
:1007C000000A23F0004150EA050220D054EA010259
:1007D0001DD0C5F30A570246C5F31303C1F3130036
:1007E000C1F30A5640F4801543F48013A7EB0608C2
:1007F000101BD64608F2FD3873EB050002D308F152
:10080000010801E092185B41B8F1000F03DA002003
:100810000146BDE8F08D00204FF480110646844665
:100820000EE0171B73EB050705D3121B63EB0503E3
:1008300006434CEA010C49084FEA300092185B412C
:1008400050EA0107EDD152EA030012D082EA040017
:1008500083EA0501084305D0101BAB4106D20122F3
:10086000002306E000224FF0004302E06FF0010297
:1008700053101AEB06004CEB085110EB0A0041EB49
:100880000B01BDE8F04D00F08CB8C1F30A52C1F382
:10089000130140F2FF3341F480119A4202DA002042
:1008A0000146704740F233439A42A2F2334202DCDF
:1008B0005242FFF737BC00F053B810B500F00044C7
:1008C00020F00040C20DC0F3160040F400007F2A63
:1008D00007DA7D2A00DA7D22763A00FA02F100205A
:1008E00008E0962A09DCA2F1760100FA01F1C2F1D2
:1008F0009602D040FFF78EFD01E0963A9040002C22
:1009000000D0404210BD000030B5041E71F100045B
:1009100004DB4FF00044404264EB0101141E73F10C
:10092000000405DB1C464FF00043524263EB040316
:10093000994208BF904230BD00207047064C074DD9
:1009400006E0E06840F0010394E80700984710349F
:10095000AC42F6D3FFF7CEFB80380008A038000881
:10096000202A04DB203A00FA02F10020704791406F
:10097000C2F1200320FA03F3194390407047202A64
:1009800006DBCB17203A41FA02F043EAE07306E0B7
:1009900041FA02F3D040C2F12002914008431946C7
:1009A000704710B5141E73F1000408DA401C41F1C1
:1009B000000192185B411A4301D120F0010010BDE3
:1009C0002DE9F04D92469B4611B1B1FA81F202E059
:1009D000B0FA80F220329046FFF7C2FF04460F467D
:1009E00040EA0A0041EA0B0153465A46084313D035
:1009F000114653EA010019D0C8F140025046FFF7F2
:100A000091FB05460E46504659464246FFF7A8FF61
:100A1000084305D0012004E020463946BDE8F08DAA
:100A20000020054346EAE0762C4337430A986305E5
:100A3000E40AA0EB08000022FD0A44EA47540A3009
:100A400002D500200146E9E7010510196941DDE9F9
:100A5000084500196941BDE8F04DA2E7FEE770477F
:100A600001B5074807490068B0FBF1F00099484319
:100A70000090411E009101D30846FAE708BD00002E
:100A8000100000204054890070B5044600F0FAF8C8
:100A90000546601C02D004480078044400F0F2F8D7
:100AA000401BA042FAD370BD040000202DE9F84F8E
:100AB000DFF890A100220AF1040B144601274FF041
:100AC0000F090BF1040E00BF0B6807FA04F52B4069
:100AD000AB4274D1DFF870C14E68A6EB0C086645D6
:100AE0002BD00DDC032E34D005DC36B3012E19D00B
:100AF000022E2FD11BE0112E16D0122E2AD119E072
:100B0000B8F5881F19D006DCB8F5803F15D0B8F5C8
:100B1000801F1FD111E0B8F5001F0ED0B8F5041FDB
:100B200018D10AE0CA6815E0CA68121D12E0CA6846
:100B300008320FE0CA680C320CE08A682AB1012A38
:100B40004FF0080203D0456104E0042202E0056191
:100B500000E00022FF2B01D8064601E000F1040668
:100B60004FEA840501D9A5F12005D6F800C009FA9D
:100B700005F82CEA080C02FA05F54CEA050CC6F853
:100B800000C04D68ED0057D5304DAE6946F0010606
:100B9000AE61AD6924F0030605F0010500952C4D0A
:100BA00006EB050CDCF80850A6074FEA167809FAA0
:100BB00008F6B543274EB04202D1002610E03BE0D4
:100BC000254EB04201D101260AE0244EB04201D1A7
:100BD000022605E0224EB04201D1032600E00426A1
:100BE00006FA08F62E43CCF808604D68DAF8006083
:100BF000ED03554601D51E4300E09E432E604D682F
:100C0000DBF80060AD035D4601D51E4300E09E4366
:100C10002E604D68DEF80060ED02754601D51E437A
:100C200000E09E432E604D68AD020E4D2E6801D54A
:100C30001E4300E09E432E60641C102CFFF444AF62
:100C4000BDE8F88F000401400000111000100240C0
:100C50000000014000080140000C0140001001406C
:100C6000001401400C0401408068084000D00120BD
:100C70007047C2684A40C26070470AB1016170475C
:100C80000904FBE701488068704700000400002069
:100C90000248816802781144816070470400002096
:100CA000074810B5016841F010010160032000F011
:100CB00095F8002000F006F800F024F8002010BDA0
:100CC0000020024070B50D4D04464FF47A7128782B
:100CD000B1FBF0F00A490968B1FBF0F000F0B2FC9A
:100CE00048B9102C07D200222146501E00F056F8B9
:100CF00000206C6070BD012070BD00000400002069
:100D0000100000201E4808B5816941F00101816191
:100D1000816901F001010091C16941F08051C16117
:100D2000C06900F080500090032000F057F80022C6
:100D300011466FF00B0000F031F8002211466FF001
:100D40000A0000F02BF8002211466FF0090000F0B5
:100D500025F800221146501F00F020F8002211460D
:100D6000101F00F01BF800221146901E00F016F82C
:100D70000022BDE808401146501E00F00FB80000E8
:100D80000010024000F01F02012191404009800044
:100D900000F1E020C0F8001170470000F0B40E4BE5
:100DA0001B680C46C3F30223C3F10705042D00D9C9
:100DB0000425191D072901D2002300E0DB1E0126AE
:100DC00006FA05F1491E214099409E40761E1640C4
:100DD0003143F0BC00F0CABF0CED00E0064900F062
:100DE000070208684FF6FF03184040EA0220034A52
:100DF00010430860704700000CED00E00000FA05A9
:100E0000014901200862704700000E4210B529A474
:100E100001461DCC86B08DE81D002AA02A4C006832
:100E200004900020012923D002293AD010291DD195
:100E300061682268D20119D5C1F38342C9031DF844
:100E4000020009D5616804AAC1F34041515C1F4A00
:100E5000B2FBF1F1484301E01D4948436168490292
:100E600004D440005FF00301B0FBF1F006B010BD08
:100E7000226AC2F30121012903D1920701D5C803D7
:100E8000F4E7022905D1626A920702D549F640408B
:100E9000ECE70329EAD121688903E7D54FF2244022
:100EA000E4E700F04DF96168C1F38131491C490064
:100EB000DAE7000002030405060708090A0B0C0D17
:100EC0000E0F1010010200000010024000127A0004
:100ED00000093D002DE9F84305460078354CC00770
:100EE00054D0E0690026C00008D4E06940F080508A
:100EF000E061E069012600F0805000902E48016812
:100F0000C90512D40168804641F480710160FFF781
:100F1000B9FE074605E000BFFFF7B4FEC01B64281A
:100F200023D8D8F80000C005F6D5206A10F4407028
:100F300021D0A98801F4407181421CD0206A1F4948
:100F4000012220F440700A6000220A602062C0077B
:100F500011D0FFF797FE074641F2883808E000BF3E
:100F6000FFF790FEC11B414502D90320BDE8F8837D
:100F7000206A8007F4D5206A696820F4407008432D
:100F800020621EB1E06920F08050E061287880077F
:100F900005D56068A96820F440400843606028785F
:100FA000C00605D56068E96820F4800008436060E9
:100FB0000020DBE700100240007000404004424285
:100FC0002DE9F047DFF83C8105460E46D8F80000D1
:100FD00000F00700B0420CD2D8F8001021F0070151
:100FE0003143C8F80010D8F8000000F00700B04204
:100FF00063D12878444C800705D56068A96820F043
:10100000F000084360602878C00745D06868012870
:1010100016D02168022816D0890700294DDA6168A8
:1010200021F0030101436160FFF72CFE6968074668
:1010300041F2883001290FD00229814619D027E0DA
:1010400021688903E9E78901E7E700BFFFF71AFE96
:10105000C11B494501D918E081466068C0F3810091
:101060000128F3D118E000BFFFF70CFEC11B494572
:101070000BD86068C0F381000228F5D10CE000BFF6
:10108000FFF700FEC11B494502D90320BDE8F087E8
:10109000606810F00C0FF3D1D8F80010404601F052
:1010A0000701B1420BD9016821F00701314301600A
:1010B000006800F00700B04201D00120E6E7287880
:1010C000400705D56068E96820F4E0600843606087
:1010D0002878000706D56068296920F4605040EA46
:1010E000C100606000F03CF86168084AC1F3031178
:1010F000515CC840064908600020FFF7E3FD00206E
:10110000C4E7000000200240001002400E37000833
:101110001000002001480068704700001000002007
:101120000448054900684968044AC1F30221515C3A
:10113000C840704710000020001002401E37000811
:101140000448054900684968044AC1F3C221515C5A
:10115000C840704710000020001002401E370008F1
:1011600012A185B00FC98DE80F0014A0144A0068C1
:1011700004905168134801F00C03042B10D0082B85
:101180000ED1C1F38343C9031DF803000AD551688A
:1011900004AAC1F34041515C0A4A5043B0FBF1F04C
:1011A00005B0704708494843FAE700000203040508
:1011B000060708090A0B0C0D0E0F101001020000A3
:1011C0000010024000127A0000093D002DE9F84F9E
:1011D00004460078B94DC00748D06868C0F3810064
:1011E000012807D06868C0F38100022809D1686827
:1011F000C00306D52868800338D5606800286FD002
:1012000034E06068B0F5803F0BD010B1B0F5A02F8E
:1012100011D0286820F480302860286820F48020CD
:1012200002E0286840F480302860606888B1FFF7E9
:1012300029FD064609E0286840F480202860F0E790
:10124000FFF720FD801B642875D828688003F7D538
:101250000CE0FFF717FD064605E000BFFFF712FDA3
:10126000801B6428F0D828688003F7D42078944E37
:1012700080074FF001094FF000083BD5686810F077
:101280000C0F07D06868C0F38100022809D1686894
:10129000C00306D42868800714D5206901281FD10F
:1012A00010E02069B0B1C6F80090FFF7EBFC0746EC
:1012B00005E000BFFFF7E6FCC01B0228C4D8286881
:1012C0008007F7D52868616920F0F80040EAC1007E
:1012D00028600FE0C6F80080FFF7D4FC074606E060
:1012E000E9E000BFFFF7CEFCC01B022823D8286826
:1012F0008007F7D4207800072CD57248A169D9B1AE
:10130000C0F80090FFF7BEFC074604E0FFF7BAFC08
:10131000C01B02280FD8686A8007F7D56A484FF4C7
:10132000FA510068B0FBF1F0009000BF0098411E38
:101330000091FAD20EE080E0C0F80080FFF7A2FC36
:10134000074604E0FFF79EFCC01B022875D8686AB8
:101350008007F7D42078400760D5E8690027C000EF
:1013600008D4E86940F08050E861E869012700F09E
:101370008050009055480168C90513D40168834620
:1013800041F480710160FFF77DFC824606E000BFFA
:10139000FFF778FCA0EB0A0064284ED8DBF80000C9
:1013A000C005F5D5E06801280AD008B1052813D09A
:1013B000286A20F001002862286A20F0040002E078
:1013C000286A40F001002862E06841F2883B98B149
:1013D000FFF758FC82460BE0286A40F004002862C0
:1013E000EEE700BFFFF74EFCA0EB0A0159455AD8C3
:1013F000286A8007F6D50CE0FFF744FC824605E03A
:10140000FFF740FCA0EB0A0159454CD8286A800739
:10141000F6D41FB1E86920F08050E861E06988B334
:101420006968C1F38101022945D00228C6F86080AD
:1014300004D0FFF727FC044638E034E0FFF722FC35
:10144000074604E0FFF71EFCC01B02282BD82868C3
:101450008001F7D4206AB0F5803F05D16868A168A3
:1014600020F4003008436860D4E908010843696843
:1014700021F4741108436860C6F86090FFF702FC1D
:10148000044606E015E000BFFFF7FCFB001B022846
:1014900009D828688001F7D50BE000BFFFF7F2FB01
:1014A000001B022802D90320BDE8F88F28688001BC
:1014B000F4D40020F8E70120F6E700000010024015
:1014C00000004242800442421000002000700040B0
:1014D000024850F8210080B270470000006C0040C4
:1014E000024800EB810091B201607047006C00403F
:1014F00080B1017C01290FD00121017402224274C4
:101500000268136843F00103136041740021017401
:1015100008467047012070470220704770B50400EC
:1015200003D0607C002610B105E0012070BD267458
:10153000204600F043F802206074204600F058F87E
:10154000042578BB204600F0FFFC58BB20684168AA
:1015500021F007014160A06820B11748016821F01F
:10156000010101601448001F0168A26821F4607144
:10157000114301606068411C04D10120FFF746FC63
:1015800080B1401E21688A6822F00F0242EA1042B0
:101590008A602168CA6860F30F02CA60204600F0C2
:1015A000EDFC08B16574C0E7E67301206073A073B9
:1015B0006074002070BD0000306C004008B5006809
:1015C000084988420DD1FFF71BFC0748C16941F06B
:1015D0000061C161C069054900F000600090012010
:1015E000086008BD00280040001002403C04424250
:1015F00070B504000AD02068416821F008014160FC
:10160000FFF740FB05464FF47A7608E0012070BDF5
:10161000FFF738FB401BB04201D9032070BD2068A2
:1016200040680007F4D5002070BD4FF0E021042889
:10163000086903D020F004000861704740F00400FE
:10164000FAE7704710B5401EB0F1807F01D301204A
:1016500010BD4FF0E02460610F21601700F086FBA1
:101660000020A06107202061002010BD10B5FFF709
:10167000E8FF10BD7047704730B590F83C20012A54
:1016800020D0012280F83C20022380F83D300368FE
:101690005C6824F070045C6003685C680D682C432F
:1016A0005C6003689C6824F080049C6003689C680C
:1016B00049680C439C6080F83D20002180F83C1074
:1016C000084630BD022030BD10B5040003D094F8A8
:1016D0003D0010B107E0012010BD002084F83C005F
:1016E000204600F00DF8022084F83D00211D2068FE
:1016F00000F000FD012084F83D00002010BD000036
:1017000008B50068174988422AD11748816941F411
:10171000006181618069002200F400600090114640
:101720001820FFF73BFB1820FFF72CFB0022114687
:101730001920FFF733FB1920FFF724FB0022114685
:101740001A20FFF72BFB1A20FFF71CFB0022114683
:101750001B20FFF723FBBDE808401B20FFF712BB4F
:1017600008BD0000002C0140001002400168CA685A
:1017700042F00102CA600068016841F001010160A5
:101780000020704770B5044690F83C00012817D03F
:10179000012584F83C50022084F83D0020688268CE
:1017A00022F0770222F47F4282600868502837D006
:1017B0000DDC202859D005DC88B3102841D151E038
:1017C000022070BD302853D040283AD13FE0602835
:1017D0002ED070280BD0B0F5805F03D0B0F5005F3D
:1017E0002FD110E02068816821F0070115E0CB6857
:1017F000D1E90121206800F0B3FC2168886840F03D
:10180000770088601DE0CB68D1E90121206800F0F5
:10181000A7FC2068816841F48041816011E01EE0EE
:10182000CA684968206800F0ADFC5021206806E0D5
:10183000CA684968206800F0B6FC6021206800F0A2
:1018400099FC84F83D50002084F83C0070BDCA68C3
:101850004968206800F096FC40212068EFE70021ED
:101860002068ECE710212068E9E720212068E6E7FE
:1018700030212068E3E7704770B5044600680169CD
:101880004FF00005C943890715D4C168C9438907CA
:1018900011D4E91E0161012020772068806980074A
:1018A000204602D0FFF7E7FF04E000F098F820465A
:1018B00000F096F8257720680169C943490717D4D5
:1018C000C168C943490713D46FF0040101610220C4
:1018D00020772068806910F4407F204602D0FFF70F
:1018E000CAFF04E000F07BF8204600F079F8257785
:1018F00020680169C943090716D4C168C9430907AB
:1019000012D46FF008010161042020772068C069BB
:101910008007204602D0FFF7AEFF04E000F05FF83A
:10192000204600F05DF8257720680169C943C906A3
:1019300017D4C168C943C90613D46FF010010161FF
:10194000082020772068C06910F4407F204602D02C
:10195000FFF791FF04E000F042F8204600F040F865
:10196000257720680169C943C90708D1C168C943FF
:10197000C90704D1891E0161204600F032F82068B1
:101980000169C943090609D4C168C943090605D4D8
:101990006FF0800101612046FFF76CFE206801694D
:1019A000C943490609D4C168C943490605D46FF043
:1019B00040010161204600F015F820680169C94323
:1019C00089060BD4C168C943890607D46FF020018A
:1019D00001612046BDE87040FFF74DBE70BD704705
:1019E00070477047704770B5040004D094F8390010
:1019F000002510B106E0012070BD84F83850204663
:101A000000F022F8242084F839002068C16821F40D
:101A10000051C160204600F0D9FB2068016921F423
:101A2000904101612068416921F02A0141612068EB
:101A3000C16841F40051C160E563202084F8390099
:101A400084F83A00002070BD10B50068114986B0D6
:101A500088421DD11048816941F4804181618069CB
:101A60000E4C00F4804004904FF40070009002206F
:101A700001900320039069462046FFF717F80021E4
:101A80002015CDE90001029169462046FFF70EF8C6
:101A900006B010BD003801400010024000080140AF
:101AA0002DE9F843044690F839001F4616460D46C6
:101AB000202850D1A5B19EB194F8380001284AD011
:101AC000012084F838004FF00008C4F83C80212041
:101AD00084F83900FFF7D6F8A6848146E68426E02C
:101AE0000120BDE8F883E08C401EE084A0684B46EE
:101AF000B0F5805F4FF000024FF080012046009764
:101B000003D000F01BFCE8B90DE000F017FCC8B9E9
:101B100028882168C0F308004860206908B16D1C5E
:101B200005E0AD1C03E0216815F8010B4860E08C6E
:101B30000028D8D14B46002240212046009700F0D3
:101B4000FDFB08B10320CCE7202084F8390084F89D
:101B500038800020C5E70220C3E7FEE710B5094C36
:101B6000012240212046FFF788F80120FEF78CFF74
:101B7000002240212046FFF780F8BDE810400120F8
:101B8000FEF782BF0010014019B1C030C0B200F0B2
:101B90006BB88030FAE7000010B5002000F044F880
:101BA000002210210F48FFF768F8032000F03CF8EE
:101BB000FFF7D4FFFFF7D2FFFFF7D0FF022000F0BE
:101BC00033F8FFF7CBFF282000F04EF80C2000F090
:101BD0004BF8062000F048F8BDE81040012000F066
:101BE00043B800000010014070B5084C05460122C2
:101BF00010212046FFF741F8284600F035F820462E
:101C0000BDE8704000221021FFF737B800100140F6
:101C100010B5044603E000BFFFF7E6FF641C207820
:101C20000028F9D110BD000070B50E4D044600F03B
:101C3000010280212846FFF720F8C4F34002A915CD
:101C40002846FFF71AF8C4F3800269152846FFF703
:101C500014F8C4F3C00229152846BDE87040FFF708
:101C60000CB800000010014010B504460009FFF751
:101C7000DBFFFFF773FF2046FFF7D6FFBDE81040FC
:101C8000FFF76CBF70B51F4886B0816941F0040151
:101C90008161816901F004010491816941F01001C1
:101CA0008161816901F010010491816941F0200195
:101CB0008161816901F020010491816941F0040191
:101CC00081618069104E00F004004FF47F6404903D
:101CD000002221463046FEF7D0FF00940124032560
:101CE000694630460194CDE90245FEF7DFFE022049
:101CF000CDE9000469460548CDE90245FEF7D6FE68
:101D000006B070BD00100240001001400008014004
:101D100010B5144886B01249016041F61F410024F5
:101D2000C0E9011442F20F71C0E9031444618461F7
:101D3000FFF7CAFC00B1FEE74FF4805000906946FF
:101D40000848FFF71FFD00B1FEE7049404A9054809
:101D50000594FFF791FC002800D0FEE706B010BD07
:101D6000002C014080000020FEE770470907090EA3
:101D7000002806DA00F00F0000F1E02080F8141DC2
:101D8000704700F1E02080F80014704770470000B1
:101D900010B596B02D4800F00CF90446014601A894
:101DA00000F0C0FF0198DDE90232009028A10CA8E4
:101DB00000F008FB06982BA100F26C700090DDE9A2
:101DC000042311A800F0FEFA21462CA000F0EAFA44
:101DD0002FA0019900F0E6FA32A0029900F0E2FA91
:101DE00035A0039900F0DEFA38A0079900F0DAFA7E
:101DF0003BA0049900F0D6FA3EA0059900F0D2FA73
:101E0000069941A0643900F0CDFA44A000F0CAFA66
:101E100000210846FFF7B8FE0CA8FFF7F9FE0021E5
:101E20000E20FFF7B1FEDF20FFF7DEFE00210F20BE
:101E3000FFF7AAFE43A0FFF7EBFE01210020FFF70A
:101E4000A3FE11A8FFF7E4FE16B010BD6C00002041
:101E500025302E32643A25302E32643A25302E3227
:101E6000640000003E3E3E25302E32642D25302E8B
:101E700032642D25302E32643C3C3C000A54696D9E
:101E8000657374616D70203D2025640A00000000B8
:101E9000746D2E5365636F6E6420203D2025640AA7
:101EA00000000000746D2E4D696E75746520203D34
:101EB0002025640A00000000746D2E486F757220A2
:101EC0002020203D2025640A00000000746D2E575C
:101ED000646179202020203D2025640A0000000054
:101EE000746D2E44617920202020203D2025640A35
:101EF00000000000746D2E4D6F6E74682020203D30
:101F00002025640A00000000746D2E59656172205E
:101F10002020203D2025640A000000000A2D2D2DE0
:101F20002D2D2D2D2D2D2D2D2D2D2D2D2D2D2D2DE1
:101F30002D2D2D2D2D2D2D2D2D2D2D2D2D2D2D2DD1
:101F40000A0000004300000070B50446FEF79AFE48
:101F500005464FF47A7606E0FEF794FE401BB04249
:101F600001D9032070BD206840688006F4D5206840
:101F7000416841F010014160002070BD70B5044619
:101F80000068416821F010014160FEF77BFE0546C4
:101F90004FF47A7607E000BFFEF774FE401BB042B4
:101FA00001D9032070BD206840688006F4D5002068
:101FB00070BD006881698AB2C1698BB2816989B2DA
:101FC0008A4203D0C06961F31F40704743EA024070
:101FD000704770B50D4606460024FFF7B5FF48B9B7
:101FE0003168280C88613168A8B2C8613046FFF7B3
:101FF000C5FF00B10124204670BD704710B5FEF743
:1020000047FEBDE81040FFF731BB70B594B0012426
:10201000052000250090CDE902544FF48030019056
:1020200002260494CDE907604FF4E0100990684659
:10203000FFF7CCF800B1FEE70F20CDE90A064FF418
:102040008060CDE90C5002210AA80E95FEF7B8FF7A
:1020500000B1FEE74FF48070CDE90F400FA8FEF706
:1020600039FF00B1FEE7FFF755F84FF47A71B0FB86
:10207000F1F0FFF7E7FA0420FFF7D7FA0022114644
:10208000501EFEF78BFE14B070BD00000D480168B5
:1020900041F00101016041680B4A11404160016853
:1020A0000A4A11400160016821F480210160416801
:1020B00021F4FE0141604FF41F0181600449C00317
:1020C00008607047001002400000FFF8FFFFF6FEB6
:1020D00008ED00E010B50548FFF7CEFBBDE8104065
:1020E0004FF400610248FEF7C4BD000080000020EC
:1020F00000100140F0B50268164B174C174D4FF019
:102100008047984205D0B84203D0A04201D0A842EF
:1021100003D122F070064A683243984205D0B84293
:1021200003D0A04201D0A84203D122F44074CA686F
:10213000224322F080044A69224302608A68C26214
:102140000A688262984201D10969016301214161F3
:10215000F0BD0000002C01400004004000080040D9
:1021600010B5846842EA032224F47F440A432243E0
:10217000826010BD826822F070020A4342F00701BB
:102180008160704710B5036A046A24F00104046298
:10219000846924F0F00444EA021423F00A020A439A
:1021A0008461026210BD10B5036A23F0100303625C
:1021B0008369046A23F4704343EA023224F0A003E3
:1021C00043EA01118261016210BD00002DE9F04176
:1021D000044600680169E26821F44051114301613D
:1021E0002169A0680843616908432168CA6841F20F
:1021F0000C639A430243CA6020684169A26921F4D2
:102200004071114341614C4920686425322688425F
:102210003CD1FEF795FF00EBC00101EB00106168B7
:102220008900B0FBF1F7FEF78BFF00EBC00101EB7B
:1022300000106168B0468900B0FBF1F0B0FBF5F02A
:102240006FF01801484307EB800106EB0110B0FB6B
:10225000F5F000F0F006FEF773FF00EBC00101EBB4
:10226000001061688900B0FBF1F0B0FBF5F006EBFF
:102270000016FEF765FF00EBC00101EB001061687E
:102280008900B0FBF1F7FEF75BFF3BE0FEF748FF8C
:1022900000EBC00101EB001061688900B0FBF1F7B1
:1022A000FEF73EFF00EBC00101EB00106168B04695
:1022B0008900B0FBF1F0B0FBF5F06FF01801484376
:1022C00007EB800106EB0110B0FBF5F000F0F00623
:1022D000FEF726FF00EBC00101EB001061688900EA
:1022E000B0FBF1F0B0FBF5F006EB0016FEF718FFBF
:1022F00000EBC00101EB001061688900B0FBF1F751
:10230000FEF70EFF00EBC00101EB001061688900D1
:10231000B0FBF1F0B0FBF5F06FF01801484307EBAC
:10232000800108EB0110B0FBF5F0216800F00F0010
:1023300030448860BDE8F081003801402DE9F0416B
:10234000984617460E460446069D1DE0681C1BD0A5
:102350002DB1FEF797FCA0EB0800A84214D9206825
:10236000C16821F4D071C1602068416921F0010188
:102370004161202084F8390084F83A00002084F874
:1023800038000320BDE8F0812068006836EA0000CC
:1023900004D00020B842D9D00020F3E70120F9E7AB
:1023A000FEE700000FB4054B10B503A9044A0298DC
:1023B00000F01CF910BC5DF814FB0000612F000850
:1023C000140000200FB4084B10B504A902AA03980A
:1023D00000F00CF9044602A9002000F09EFC204603
:1023E00010BC5DF814FB00001B2D00084100080222
:1023F00018BF04200A0E18BF40F001004FF07F42C2
:1024000032EA010108BF40F00200012808BF0520A0
:10241000704700214FF07E50FEF765B8FDF7F8BE1B
:1024200000210846FEF75FB861214FF0E040FEF75B
:1024300098B86FF05E010807FEF793B802E008C88D
:10244000121F08C1002AFAD170477047002001E02E
:1024500001C1121F002AFBD170470000014908602A
:1024600070470000180000202DE9FF5F82B00021B6
:10247000DDE90430020DDDF840B0034318D044F626
:102480001050A2F2FF3242431514119801281FD0B8
:10249000A5EB0B00401C5FEA000A4FF000064E4F10
:1024A000DFF83891B046504615D5CAF1000413E064
:1024B000119801244AA3012801D16FEA0B01029867
:1024C000119AC0E90031C0E9024206B0BDE8F09FB0
:1024D000CBF10000DFE704460021404A491842EBF7
:1024E0000450CDE9001012E0E00707D032463B4629
:1024F00040464946FEF7E8F88046894632463B4664
:1025000010461946FEF7E0F806460F466410002C08
:10251000EAD1DDE90401DDE90023BAF1000F06DAB2
:10252000FEF7D2F842464B46FEF7CEF805E0FEF73E
:102530003DF942464B46FEF739F904460E46002265
:10254000284BFEF7E1F903D84FF0FF30014607E0D2
:102550000022254B20463146FEF70FF8FEF795F98D
:10256000102409E0002C0ADB0A220023FDF7DAFE22
:10257000039B30321A55641E50EA0102F2D1641CEA
:10258000039AC4F111031444119A012A03D00122C1
:1025900008430DD10AE0084304D000204FF0110B8E
:1025A000119072E7A3EB0B056D1E0DE05B4504DD9A
:1025B0004FF0000205F1010504E003DA4FF00002DC
:1025C000A5F10105002AECD002981199C0E9023169
:1025D000C0E9004579E70000000014400000F03F2A
:1025E000300000000000F0430000E03F2DE9FF4F05
:1025F00095B09B468946064600250FE2252877D1EF
:1026000000242746F84A0121059400E0044316F807
:10261000013F203B01FA03F01042F7D130782A281D
:1026200011D06FF02F033078A0F13002092A16D8AC
:10263000059A44F0020402EB820203EB42021044CA
:10264000761C0590EFE759F8042B0592002A03DA6F
:10265000504244F40054059044F00204761C307853
:102660002E2816D116F8010F44F004042A280DD0A4
:102670006FF02F023078A0F13003092B09D807EB57
:10268000870302EB4303C718761CF3E759F8047B72
:10269000761C30786C280FD006DC4C2817D06828C0
:1026A0000DD06A2814D104E0742810D07A280FD1F4
:1026B0000DE044F400140AE044F4801401E044F412
:1026C00040147278824202D104F58014761C761C84
:1026D000307866280BD013DC582877D009DC002826
:1026E00075D04528F6D04628F4D047281AD19DE168
:1026F00018E0632835D0642879D0652812D195E197
:10270000702873D008DC6728F1D069286FD06E2854
:102710000DD06F2806D1B5E073282CD0752875D060
:10272000782874D05A46179990476D1C75E1C4F308
:102730000250022809D003280DD0D9F8001004282F
:102740000DD00D6009F1040967E1D9F80010EA170E
:10275000C1E90052F6E7D9F800100D80F2E70D70DC
:10276000F0E719F8041B8DF8001000208DF8010027
:10277000EA46012003E059F804AB4FF0FF3061074F
:102780004FF0000102D40DE008F101018846B94282
:102790000FDA8045F8DB1AF808100029F4D108E0B8
:1027A00008F1010188468142FADB1AF80810002975
:1027B000F6D105985B46A0EB080721463846179AE4
:1027C00000F094FA284400EB080507E04DE029E109
:1027D0000DE01AF8010B5A4617999047B8F1010815
:1027E000F7D25B4621463846179A13E142E00A22A7
:1027F0000092C4F302524FF0000A022A08D059F89E
:1028000004CB032A4FEAEC710AD00DE029E02AE05C
:1028100009F1070121F00702F2E802C1914609E03F
:102820000FFA8CFC4FEAEC71042A03D14FFA8CFCAE
:102830004FEAEC71002907DA0A460021DCF1000CAE
:1028400061EB02012D2202E0220504D52B228DF836
:102850000420012203E0E20701D02022F7E790469E
:1028600059E00A2102E010220DE010214FF0000A89
:1028700000910BE010224FF0000A44F004040827F6
:10288000009203E008224FF0000A0092C4F30252C3
:10289000022A05D059F804CB0021032A08D009E008
:1028A00009F1070121F00702F2E802C1914605E0B3
:1028B0001FFA8CFC042A01D10CF0FF0C4FF0000829
:1028C000220728D5702806D0009B83F0100353EA16
:1028D0000A0305D00EE040228DF80420012208E012
:1028E0005CEA010206D030228DF804208DF8050044
:1028F00002229046009B83F0080353EA0A030AD1A0
:102900005CEA010201D1620705D530228DF804206E
:102910004FF001087F1E582804D034A003900EA861
:1029200002900DE036A0F9E753466046009AFDF7A5
:10293000F9FC84460398825C0298401E0290027063
:102940005CEA0100F0D1029806A9081A00F1200AF9
:10295000600702D524F4803400E00127574502DDEA
:10296000A7EB0A0000E0002000EB0A0100900598A8
:102970004144401A0590E00306D45B462146179A6D
:10298000059800F0B3F90544002706E001A85A466F
:10299000C05D179990476D1C7F1C4745F6DBE0032F
:1029A0000CD55B462146179A059800F09FF905441F
:1029B00004E030205A46179990476D1C0099481E34
:1029C00000900029F5DC08E0029802995A46007848
:1029D000491C0291179990476D1CBAF10001AAF1A8
:1029E000010AF1DC65E100000928010030313233D1
:1029F000343536373839616263646566000000003B
:102A00003031323334353637383941424344454624
:102A10000000000000F058F90544761C30780028CA
:102A20007FF4ECAD19B02846BDE8F08F620700D402
:102A3000062709F1070222F0070CFCE80223E14611
:102A400003F000485FEA080C02D00FF2702C0DE092
:102A50005FEA045C02D50FF2682C07E05FEAC47CF1
:102A600002D00FF2602C01E0AFF2700C4FF0FF3893
:102A700023F00043CDF850C065280CD006DC452873
:102A800009D046281DD047283DD13DE0662818D002
:102A900067287ED138E00021112F01DB112000E0F2
:102AA000781CCDE9000106A90EA8FFF7DDFCDDE9E1
:102AB0000F010E9A03910021009207F1010A04917F
:102AC0004DE04FF000400097CDE9011006A90EA897
:102AD000FFF7CAFCDDE90F0203920E9B1199002259
:102AE000DDF80CA00093049211B9791C00EB010AE7
:102AF000B7EB0A0004D4C0F1FF3007F1010A0490DB
:102B0000AAEB0700019044E0012F00DA0127002121
:102B1000112F01DD112000E03846CDE9000106A9A2
:102B20000EA8FFF7A1FCDDE90F010E9A0391002129
:102B300004910092BA4621070CD40399514500DA5A
:102B40008A46BAF1010F05DD009AAAF10101515C34
:102B5000302908D0B84202DA10F1040F06DA012158
:102B6000CDE9011015E0AAF10101E9E7002805DC33
:102B7000049901440491AAEB000102E0411C514573
:102B800000DD8A460499401A401C01904FF0004035
:102B90000290200704D40198504501DBCDF8048051
:102BA00000208DF84F0002980DF14F07B0F1004F53
:102BB00025D02B200E9002984FF0020800280CDA46
:102BC000404202902D200E9007E00A210298FDF766
:102BD00093FB3031029007F8011DB8F10001A8F114
:102BE0000108F2DC02980028EFD1791E0E980870D7
:102BF000307800F0200040F0450007F8020D12A8E0
:102C0000C01B00F107081498007800B1012000EB08
:102C10000A01019801EBE07105984144401A401EF9
:102C20000590E00306D45B462146179A059800F00C
:102C30005DF805441498007818B15A4617999047E2
:102C40006D1CE00324D55B462146179A059800F0D9
:102C50004DF805441CE00498002807DBDDE903017A
:102C6000884203DD0098405C179901E017993020F5
:102C70005A469047049805F10105401C04900198BC
:102C8000401E019004D12E205A46179990476D1C82
:102C9000BAF10001AAF1010ADDDC05E017F8010B29
:102CA0005A46179990476D1CB8F10001A8F1010828
:102CB000F4DC5B462146179A0598ABE62D00000030
:102CC0002B000000200000002DE9F0410446002503
:102CD0001E461746880404D405E039462020B04734
:102CE0006D1C641EF9D52846BDE8F0812DE9F04140
:102CF000044600251E469046C80301D5302700E053
:102D00002027880404D505E041463846B0476D1CAD
:102D1000641EF9D52846BDE8F0810A68531C0B6093
:102D2000107070472DE9F041804628488CB001446E
:102D30003C20B1FBF0F200FB1216B1FBF0F1B1FB4D
:102D4000F0F200FB1215B1FBF0F01821B0FBF1F22C
:102D500001FB1207B0FBF1F080B2002399070BD002
:102D60005FF0000404F26D11884207D3001BA0F24B
:102D70006D1080B25B1CF1E70124F3E7DFF850C06F
:102D8000012100BF0CEB010212F8012C1CB1022939
:102D900001D1521CD2B2904213D203AA401C491E48
:102DA0006433029782E80B00CDE900656846FDF7C1
:102DB000C9F92C2269464046FDF718FA0CB0BDE867
:102DC000F081801A80B2491CDCE7000080BC92C709
:102DD0000237000810B5114C002202212046FDF7F1
:102DE0004CFF4FF41670FDF73BFE012202212046F6
:102DF000FDF743FF6420FDF733FE02212046FDF777
:102E000033FF4FF4FA710028084603D0FDF728FE7F
:102E1000002010BDFDF724FE012010BD0008014078
:102E200010B5104C002202212046FDF726FF02209B
:102E3000FDF716FE012202212046FDF71EFF0A20A3
:102E4000FDF70EFE02212046FDF70EFF00284FF091
:102E50003A0003D0FDF704FE012010BDFDF700FE8F
:102E6000002010BD0008014070B500254FEA0504A0
:102E7000FFF7D6FFA0402843641CE4B2C5B2082C7B
:102E8000F6D3284670BD2DE9F04701250026FFF74F
:102E9000EBFF0446FFF7E8FF44EA00276C1F4FF002
:102EA00080494FF6FF782F420AD02046FDF708FAF6
:102EB0000146484600F004F93146FDF7A9F90646F7
:102EC000641C64B208EA4505072CECDB3046BDE81B
:102ED000F087000010B5044600F00EF8442C06D12F
:102EE000034C02212046FDF7BFFE0028F9D010BD9B
:102EF00000080140AFF300802DE9F04104460126AF
:102F0000164F00F00100002500284FF000024FF09E
:102F1000020138460BD0FDF7B0FE0320FDF7A0FDFF
:102F2000012202213846FDF7A8FE5A200AE0FDF7EB
:102F3000A4FE5A20FDF794FD012202213846FDF738
:102F40009CFE0320FDF78CFD7006060E6D1CEDB295
:102F500004EA0600082DD7D3BDE8F081000801403F
:102F600013B56423012269460248FEF799FD0098D3
:102F70001CBD0000C00000201CB5FDF791FEFFF74E
:102F800044F8FEF77FFE434841490C2201604FF4AC
:102F90001651416000218160C160C0E90412816165
:102FA000C161FEF720FD00B1FEE73A483A495438C6
:102FB00001604FF0FF314160FEF7B0FA3548012162
:102FC0005438FEF785FA43F2F224A04218D01E21AD
:102FD0000D20CDE900010A231522092140F2E270FB
:102FE00000F07EFB2D49086001462A485438FEF760
:102FF000F0FF2848224601215438FEF771FA0FE00D
:10300000274C606A000102D526A0FFF7CBF9606A61
:10301000400102D525A0FFF7C5F926490120086027
:10302000FEF776FEFEF7B8FD1A484038FEF79EFB25
:1030300018485438FEF75CFAFEF7AAFEFFF7CAFEFE
:10304000CC20FFF757FF4420FFF744FF0220FDF795
:103050001BFDFFF7BFFECC20FFF74CFFBE20FFF7A4
:1030600039FFFFF710FFFDF734F9024609480B4618
:1030700011A14030FFF7A6F900210A20FEF784FDD8
:1030800004484030FEF7C4FD6420FDF7FDFCD3E7A3
:1030900000380140C000002000280040000000204F
:1030A000001002400A202E2E000000000A202E2EC2
:1030B0002E000000E004424225302E316600000060
:1030C0002DE9F04D0E460023A0F5000C4FF00071E5
:1030D000354684B002464FF07E5401EB45014FF077
:1030E0007F48BCF1FE4F80F09F81B1F1804FC0F06E
:1030F000DB81FE490144B1F5005F40F2A78200F593
:103100008021C90C01F00F07C1F307117F39A2EB31
:10311000C15501EB030B3846FDF7D2F86FF0030100
:10312000FDF71FFA4FF07E51FDF772F8014602904D
:103130002846FDF7BFF8019028460299FDF768F888
:1031400000F5006A6FF30B0A009051460298FDF7F4
:10315000B1F82946FDF75CF802904FF07E500099D7
:10316000FDF7C1F9014600900198FDF78AF900F5D5
:1031700000656FF30B0528460299FDF782F902906E
:1031800051462846FDF77DF90199FDF796F8029919
:10319000FDF790F80099FDF774F901460190284673
:1031A000FDF736F801460290FDF76BF98246D049EB
:1031B000FDF767F9CF49FDF72BF85146FDF761F9A7
:1031C000824600212846FDF7CCF90090514602982E
:1031D000FDF757F9054600210198FDF7C2F9294688
:1031E000FDF716F8824601460098FDF711F800F544
:1031F00000656FF30B0529460098FDF75BF8514613
:10320000FDF706F88246BC492846FDF73AF90090DA
:10321000BA495046FDF735F98246B9492846FDF7C7
:1032200030F95146FCF7F4FF824601460098FCF75E
:10323000EFFF00F500656FF30B0529460098FDF7D9
:1032400039F85146FCF7E4FF8246AE48784450F81E
:10325000371000EBC700019147684FEA0B10FDF7EC
:103260002FF8009039465046FCF7D2FF2946FCF76C
:10327000CFFF0199FCF7CCFF0099FCF7C9FF00F5DF
:10328000006B6FF30B0B58460099FDF713F801998B
:10329000FDF710F82946FDF70DF83946FDF70AF855
:1032A0005146FDF70AF806F5006782466FF30B07F3
:1032B00039463046FCF7FEFF002100900846FDF736
:1032C0003BFB00F00C0639465846FDF7DAF8054698
:1032D00020F00040B0F18B4F0ADDB8EB400F07D370
:1032E0004FF08B4060F31E052F464FF0000A1FE0A1
:1032F00038460099FCF78CFF5146FDF7C2F80746A7
:1033000058460099FDF7BDF83946FCF781FF824623
:1033100001462846FCF77CFF00F500676FF30B07BA
:1033200039462846FCF7C6FF5146FCF771FF824636
:1033300031460C20FDF700FB51463846FCF768FF8C
:10334000FDF7BBFA06460511FCF7BAFF3946FCF754
:10335000B4FF5146FCF75CFF07466B49FDF791F857
:103360006A49FCF755FF3946FDF78BF86849FCF7C9
:103370004FFF3946FDF785F80146664806F00F060F
:10338000784450F82600FDF77CF86349794451F8F9
:103390002610FCF73DFF6149794451F82610FCF7EF
:1033A00037FF05F17D01FC2908D22946FDF7D9F840
:1033B00004B02146BDE8F04DFDF763B805F1BF014B
:1033C000B1F5BF7F16D82946FDF7CBF82146FDF7AA
:1033D00058F80546B8EB450F1AD068000CD02846BF
:1033E000FFF704F8042808BFFFF723F8284604B0C5
:1033F000BDE8F08D002D0BDA0220FFF72FF8FFF764
:1034000018F80146204604B061F31E00BDE8F08DB7
:103410000220FFF723F8FFF707F80146204604B023
:1034200061F31E00BDE8F08DB1F1804F3CD300BFC9
:1034300000F1FF41B1F1FE4F21D200BF20F0004268
:10344000C5F3C75110467F290DDB9729BFF651AE52
:10345000C1F196014FF0010C0CFA01F1A1F1010C40
:103460001CEA050F07D00120FEF7F8FF04B0BDE805
:10347000F04DFEF7D5BF294218BF294C39E641006F
:103480001CBF4FF08071B1EB400F09D91B21FDF734
:1034900068F802466FF01A0310F0004FCED128E60C
:1034A000BCF1FE4F18D224E6B1F1007F0ED336F006
:1034B000004105D006F0004141F0FC552E46B7E72B
:1034C000410018BFB8EB400F78D8B1E7B1F1807F69
:1034D00038BFA5F50006ABD320F000416FF0FF4CDC
:1034E000104C01EB0C03A3422FD31DE0001080C051
:1034F0007EE24C3EABAAAA3E00B038423BAA38421C
:10350000D49AB8BBD8040000FC596337C9FF753A98
:103510001872313DA4040000580400000C0400009F
:10352000000080BFFFFF3F0025F000439C44A445FE
:103530000BD3B0F17E5F18BF5FEA450C3ED0B1F10E
:10354000FF4F98BFB3F1FF4F05D904B03146BDE836
:10355000F04DFEF763BFB0F1FF4F0FD0C5F3C75179
:103560007F2909DB972911DAC1F19601012202FABC
:1035700001F14A1E2A4205D0002108E015F0004F53
:1035800055D128E0294218BF012100D1022110F5B0
:10359000000F14D020B3B0F1004F27D010F1814FAD
:1035A0004ED04FF0FE41B1EB400F94BF0120002000
:1035B000012101EBE571884239D10CE040E015F0C2
:1035C000004F02D0012936D031E0012902BF3F4827
:1035D00004B0BDE8F08D4FF0FF4004B0BDE8F08DC1
:1035E00015F000400ED104B0BDE8F08DB5F1FF4FED
:1035F0001DD015F5000F05D015F0004F14D009B1FE
:10360000012907D00220FEF729FF04B0BDE8F04DE4
:10361000FEF7FFBE0220FEF721FFFEF7FAFE04B020
:1036200080F00040BDE8F08D09B1012903D004B05D
:103630000020BDE8F08D04B04FF00040BDE8F08DF3
:1036400004B04FF07E50BDE8F08D00BF4FF07E51CA
:10365000FCF730FE05466FF00101FCF782FF1C49C4
:10366000FCF72BFE2946FCF70CFF4FF07C51FCF7D2
:1036700024FE074629460846FCF703FF80F0004079
:103680003946FCF7FEFE824612492846FCF7F9FE51
:10369000074611495046FCF7F4FE82460F4928467A
:1036A000FCF7EFFE5146FCF7B3FD054601463846F0
:1036B000FCF7AEFD00F5006B6FF30B0B5946384677
:1036C000FCF7F8FD2946FCF7A3FDECE5000080FFC0
:1036D000ABAAAA3E00B0B8413BAAB841D49A38BBC5
:1036E00030B58BB0A0F26C70DDE90E54CDE904105A
:1036F000CDE902326846CDE90045FCF723FD0BB069
:1037000030BD1F1C1F1E1F1E1F1F1E1F1E1F00005F
:103710000000000000000102030406070809000081
:10372000000001020304000000000000000000008F
:103730000000B33FB2BE7D3A00002E40DFCF5138CB
:1037400000007E40BF51FABA00E0A44019DAC3BAC3
:1037500000E0C840C2ED8AB90040EB40CD1F2CBA52
:10376000001006412AFFFABA00C01541DFCFD13759
:1037700000D024419A97703A0050334189478E36E1
:1037800000404141E75B9D3800B04E41C00A98B906
:1037900000A05B41558F943A00306841DA92C0BA7C
:1037A0000040744162B3C63A0000803F00A0853FEC
:1037B00000908B3F00C0913F0030983F00F09E3F4B
:1037C00000F0A53F0050AD3F0000B53F0000BD3FF9
:1037D0000060C53F0020CE3F0040D73F00C0E03F23
:1037E00000C0EA3F0020F53F000000007D36AC3904
:1037F0007D3C3839EBDCF438320A7E39124C2639FC
:103800009B6AED39A4EE83397F661E39F6398A3911
:103810002B426539A48211395B991F39C3EECD392A
:10382000DDE7C637A5A22F390000803FC3AA853F38
:10383000C2958B3FD3C3913FF037983F32F59E3FFF
:10384000D7FEA53F3F58AD3FF304B53FA408BD3FA9
:103850002A67C53F8C24CE3FFD44D73FDFCCE03FF5
:10386000C7C0EA3F7D25F53F1F1C1F1E1F1E1F1FDF
:103870001E1F1E1F1F1D1F1E1F1E1F1F1E1F1E1F60
:10388000A0380008000000201C0000003C240008B4
:10389000BC3800081C000020FC0400004C24000878
:1038A0000000000001000000100000000000000007
:0C38B00000A24A0400000000000000001C
:04000005080000ED02
:00000001FF
